{
  "transactions": [
    {
      "hash": "0x4f87f531c4ae4dd4143227b65e89a1adac3254eeb03d38e10b33310b5d656e0d",
      "transactionType": "CALL",
      "contractName": null,
      "contractAddress": "0xff500480aea2e19ed26fe851f5f4b198558ea7cb",
      "function": "createAd(address,bytes32,uint256,uint256,uint8)",
      "arguments": [
        "0xf11176495d7370DB4d634eb1827dadDB919F62aA",
        "0x0000000000000000000000000000000000000000000000000000000000000001",
        "1000000",
        "2592000",
        "1"
      ],
      "transaction": {
        "from": "0x7cbf8192c023c46ed0cb78857bad7abcea18956f",
        "to": "0xff500480aea2e19ed26fe851f5f4b198558ea7cb",
        "gas": "0x61a30",
        "value": "0x0",
        "input": "0x9b13be9c000000000000000000000000f11176495d7370db4d634eb1827daddb919f62aa000000000000000000000000000000000000000000000000000000000000000100000000000000000000000000000000000000000000000000000000000f42400000000000000000000000000000000000000000000000000000000000278d000000000000000000000000000000000000000000000000000000000000000001",
        "nonce": "0xb",
        "chainId": "0x14a34"
      },
      "additionalContracts": [],
      "isFixedGasLimit": false
    },
    {
      "hash": "0x0d8c34e7c1f0ca82e135818b34a3d9cd7a0ccc0d441611321880d6b3f1e0e0dd",
      "transactionType": "CALL",
      "contractName": null,
      "contractAddress": "0xff500480aea2e19ed26fe851f5f4b198558ea7cb",
      "function": "createAd(address,bytes32,uint256,uint256,uint8)",
      "arguments": [
        "0xf11176495d7370DB4d634eb1827dadDB919F62aA",
        "0x0000000000000000000000000000000000000000000000000000000000000002",
        "1000000",
        "2592000",
        "1"
      ],
      "transaction": {
        "from": "0x7cbf8192c023c46ed0cb78857bad7abcea18956f",
        "to": "0xff500480aea2e19ed26fe851f5f4b198558ea7cb",
        "gas": "0x556ce",
        "value": "0x0",
        "input": "0x9b13be9c000000000000000000000000f11176495d7370db4d634eb1827daddb919f62aa000000000000000000000000000000000000000000000000000000000000000200000000000000000000000000000000000000000000000000000000000f42400000000000000000000000000000000000000000000000000000000000278d000000000000000000000000000000000000000000000000000000000000000001",
        "nonce": "0xc",
        "chainId": "0x14a34"
      },
      "additionalContracts": [],
      "isFixedGasLimit": false
    },
    {
      "hash": "0x17a2b323d95dd37f632319a0b37c136a43c4ebbd5b5d872ee49f67cdad975443",
      "transactionType": "CALL",
      "contractName": null,
      "contractAddress": "0xff500480aea2e19ed26fe851f5f4b198558ea7cb",
      "function": "createAd(address,bytes32,uint256,uint256,uint8)",
      "arguments": [
        "0xf11176495d7370DB4d634eb1827dadDB919F62aA",
        "0x0000000000000000000000000000000000000000000000000000000000000003",
        "10000",
        "2592000",
        "0"
      ],
      "transaction": {
        "from": "0x7cbf8192c023c46ed0cb78857bad7abcea18956f",
        "to": "0xff500480aea2e19ed26fe851f5f4b198558ea7cb",
        "gas": "0x49f72",
        "value": "0x0",
        "input": "0x9b13be9c000000000000000000000000f11176495d7370db4d634eb1827daddb919f62aa000000000000000000000000000000000000000000000000000000000000000300000000000000000000000000000000000000000000000000000000000027100000000000000000000000000000000000000000000000000000000000278d000000000000000000000000000000000000000000000000000000000000000000",
        "nonce": "0xd",
        "chainId": "0x14a34"
      },
      "additionalContracts": [],
      "isFixedGasLimit": false
    },
    {
      "hash": "0x306f691c2814af8af9b7d0a9059f7dc340787f63fdaac2f4c31819279f0c0972",
      "transactionType": "CALL",
      "contractName": null,
      "contractAddress": "0xff500480aea2e19ed26fe851f5f4b198558ea7cb",
      "function": "createAd(address,bytes32,uint256,uint256,uint8)",
      "arguments": [
        "0xf11176495d7370DB4d634eb1827dadDB919F62aA",
        "0x0000000000000000000000000000000000000000000000000000000000000004",
        "5000",
        "2592000",
        "0"
      ],
      "transaction": {
        "from": "0x7cbf8192c023c46ed0cb78857bad7abcea18956f",
        "to": "0xff500480aea2e19ed26fe851f5f4b198558ea7cb",
        "gas": "0x49f72",
        "value": "0x0",
        "input": "0x9b13be9c000000000000000000000000f11176495d7370db4d634eb1827daddb919f62aa000000000000000000000000000000000000000000000000000000000000000400000000000000000000000000000000000000000000000000000000000013880000000000000000000000000000000000000000000000000000000000278d000000000000000000000000000000000000000000000000000000000000000000",
        "nonce": "0xe",
        "chainId": "0x14a34"
      },
      "additionalContracts": [],
      "isFixedGasLimit": false
    }
  ],
  "receipts": [
    {
      "status": "0x1",
      "cumulativeGasUsed": "0x4866a6",
      "logs": [
        {
          "address": "0xff500480aea2e19ed26fe851f5f4b198558ea7cb",
          "topics": [
            "0xb832a1385e3ff3ce382b215cb98c30f8ef9e372abc94aa5a8e2c7d55e8dfb0cd",
            "0x0000000000000000000000000000000000000000000000000000000000000001",
            "0x000000000000000000000000f11176495d7370db4d634eb1827daddb919f62aa"
          ],
          "data": "0x",
          "blockHash": "0xb6e2273037e0757523e4a72a95560ea57a32b319ea200a0ef2aa46b65d41af90",
          "blockNumber": "0xb775c9",
          "transactionHash": "0x4f87f531c4ae4dd4143227b65e89a1adac3254eeb03d38e10b33310b5d656e0d",
          "transactionIndex": "0x9",
          "logIndex": "0x62",
          "removed": false
        }
      ],
      "logsBloom": "0x00000000000000000000000000000000000000000000000001000002400000000000000000000000000000000000000000000000000000000000000000040010010000000000000000000000000000000000000000040000000000000000000020000000000000000000000000000000000000000000000000000000000000000000000000000000000000000000000000000000000000000000000800400000000000000000000000000000000000000000000800000000000000000000000000000000000000000000000000000000000000000000000000000000000040000000000000000000000000000000000000000000000000000000000000000000",
      "type": "0x2",
      "transactionHash": "0x4f87f531c4ae4dd4143227b65e89a1adac3254eeb03d38e10b33310b5d656e0d",
      "transactionIndex": "0x9",
      "blockHash": "0xb6e2273037e0757523e4a72a95560ea57a32b319ea200a0ef2aa46b65d41af90",
      "blockNumber": "0xb775c9",
      "gasUsed": "0x42c2a",
      "effectiveGasPrice": "0x157671",
      "from": "0x7cbf8192c023c46ed0cb78857bad7abcea18956f",
      "to": "0xff500480aea2e19ed26fe851f5f4b198558ea7cb",
      "contractAddress": null,
      "l1BaseFeeScalar": "0x44d",
      "l1BlobBaseFee": "0xb41d4fab",
      "l1BlobBaseFeeScalar": "0xa118b",
      "l1Fee": "0x460bf89805",
      "l1GasPrice": "0xa2f9a3c5f",
      "l1GasUsed": "0x6cd"
    },
    {
      "status": "0x1",
      "cumulativeGasUsed": "0x4c0d38",
      "logs": [
        {
          "address": "0xff500480aea2e19ed26fe851f5f4b198558ea7cb",
          "topics": [
            "0xb832a1385e3ff3ce382b215cb98c30f8ef9e372abc94aa5a8e2c7d55e8dfb0cd",
            "0x0000000000000000000000000000000000000000000000000000000000000002",
            "0x000000000000000000000000f11176495d7370db4d634eb1827daddb919f62aa"
          ],
          "data": "0x",
          "blockHash": "0xb6e2273037e0757523e4a72a95560ea57a32b319ea200a0ef2aa46b65d41af90",
          "blockNumber": "0xb775c9",
          "transactionHash": "0x0d8c34e7c1f0ca82e135818b34a3d9cd7a0ccc0d441611321880d6b3f1e0e0dd",
          "transactionIndex": "0xa",
          "logIndex": "0x63",
          "removed": false
        }
      ],
      "logsBloom": "0x04000000000000000000000000000000000000000000000001000002400000000000000000000000000000000000000000000000000000000000000000000010010000000000000000000000000000000000000000000000000000000000000020000000000000000000000000000000000000000000000000000000000000000000000000000000000000000000000000000000000000000000000800400000000000000000000000000100000000000000000800000000000000000000000000000000000000000000000000000000000000000000000000000000000000000000000000000000000000000000000000000000008000000000000000000000",
      "type": "0x2",
      "transactionHash": "0x0d8c34e7c1f0ca82e135818b34a3d9cd7a0ccc0d441611321880d6b3f1e0e0dd",
      "transactionIndex": "0xa",
      "blockHash": "0xb6e2273037e0757523e4a72a95560ea57a32b319ea200a0ef2aa46b65d41af90",
      "blockNumber": "0xb775c9",
      "gasUsed": "0x3a692",
      "effectiveGasPrice": "0x157671",
      "from": "0x7cbf8192c023c46ed0cb78857bad7abcea18956f",
      "to": "0xff500480aea2e19ed26fe851f5f4b198558ea7cb",
      "contractAddress": null,
      "l1BaseFeeScalar": "0x44d",
      "l1BlobBaseFee": "0xb41d4fab",
      "l1BlobBaseFeeScalar": "0xa118b",
      "l1Fee": "0x460bf89805",
      "l1GasPrice": "0xa2f9a3c5f",
      "l1GasUsed": "0x6cd"
    },
    {
      "status": "0x1",
      "cumulativeGasUsed": "0x4f6604",
      "logs": [
        {
          "address": "0xff500480aea2e19ed26fe851f5f4b198558ea7cb",
          "topics": [
            "0xb832a1385e3ff3ce382b215cb98c30f8ef9e372abc94aa5a8e2c7d55e8dfb0cd",
            "0x0000000000000000000000000000000000000000000000000000000000000003",
            "0x000000000000000000000000f11176495d7370db4d634eb1827daddb919f62aa"
          ],
          "data": "0x",
          "blockHash": "0xb6e2273037e0757523e4a72a95560ea57a32b319ea200a0ef2aa46b65d41af90",
          "blockNumber": "0xb775c9",
          "transactionHash": "0x17a2b323d95dd37f632319a0b37c136a43c4ebbd5b5d872ee49f67cdad975443",
          "transactionIndex": "0xb",
          "logIndex": "0x64",
          "removed": false
        }
      ],
      "logsBloom": "0x00000000000000000000000000000000000000000000000001000002400000000000000000000000000000000000000000000000020000000000000000000010010000000000000000000000000000000000000000000000000000000000000020000000000000000000000000000000000000000000000000000000000000000000000000000000000000000000000000000000000000000000000800400000000000000000000000000000000000000000000800800000000000000000400000000000000000000000000000000000000000000000000000000000000000000000000000000000000000000000000000000000000000000000000000000000",
      "type": "0x2",
      "transactionHash": "0x17a2b323d95dd37f632319a0b37c136a43c4ebbd5b5d872ee49f67cdad975443",
      "transactionIndex": "0xb",
      "blockHash": "0xb6e2273037e0757523e4a72a95560ea57a32b319ea200a0ef2aa46b65d41af90",
      "blockNumber": "0xb775c9",
      "gasUsed": "0x358cc",
      "effectiveGasPrice": "0x157671",
      "from": "0x7cbf8192c023c46ed0cb78857bad7abcea18956f",
      "to": "0xff500480aea2e19ed26fe851f5f4b198558ea7cb",
      "contractAddress": null,
      "l1BaseFeeScalar": "0x44d",
      "l1BlobBaseFee": "0xb41d4fab",
      "l1BlobBaseFeeScalar": "0xa118b",
      "l1Fee": "0x44f849796b",
      "l1GasPrice": "0xa2f9a3c5f",
      "l1GasUsed": "0x6b2"
    },
    {
      "status": "0x1",
      "cumulativeGasUsed": "0x52bed0",
      "logs": [
        {
          "address": "0xff500480aea2e19ed26fe851f5f4b198558ea7cb",
          "topics": [
            "0xb832a1385e3ff3ce382b215cb98c30f8ef9e372abc94aa5a8e2c7d55e8dfb0cd",
            "0x0000000000000000000000000000000000000000000000000000000000000004",
            "0x000000000000000000000000f11176495d7370db4d634eb1827daddb919f62aa"
          ],
          "data": "0x",
          "blockHash": "0xb6e2273037e0757523e4a72a95560ea57a32b319ea200a0ef2aa46b65d41af90",
          "blockNumber": "0xb775c9",
          "transactionHash": "0x306f691c2814af8af9b7d0a9059f7dc340787f63fdaac2f4c31819279f0c0972",
          "transactionIndex": "0xc",
          "logIndex": "0x65",
          "removed": false
        }
      ],
      "logsBloom": "0x00000000000000000000000000000000000000000000000001000002400000000000000000000000000000000000000000000000000000000000000000000010010000000000000000000000000000000000000000000000000000000000000028000000000000000000000000000000000000000000000000000000000000000000000000000000000000000000000000000000000000000000000800400000000000000000000000000000000000000000000800000000002000000000000000000000000000000000000000000000000000008000000000000000000000000000000000000000000000000000000000000000000000000000000000000000",
      "type": "0x2",
      "transactionHash": "0x306f691c2814af8af9b7d0a9059f7dc340787f63fdaac2f4c31819279f0c0972",
      "transactionIndex": "0xc",
      "blockHash": "0xb6e2273037e0757523e4a72a95560ea57a32b319ea200a0ef2aa46b65d41af90",
      "blockNumber": "0xb775c9",
      "gasUsed": "0x358cc",
      "effectiveGasPrice": "0x157671",
      "from": "0x7cbf8192c023c46ed0cb78857bad7abcea18956f",
      "to": "0xff500480aea2e19ed26fe851f5f4b198558ea7cb",
      "contractAddress": null,
      "l1BaseFeeScalar": "0x44d",
      "l1BlobBaseFee": "0xb41d4fab",
      "l1BlobBaseFeeScalar": "0xa118b",
      "l1Fee": "0x44f849796b",
      "l1GasPrice": "0xa2f9a3c5f",
      "l1GasUsed": "0x6b2"
    }
  ],
  "libraries": [],
  "pending": [],
  "returns": {},
  "timestamp": 1719814776,
  "chain": 84532,
  "commit": "6563e59"
}