{
  "transactions": [
    {
      "hash": "0x6d5afa0884452b0480aa09ad1720f2c3512905769344582b6641e9ddba5f616b",
      "transactionType": "CALL",
      "contractName": null,
      "contractAddress": "0x194db537469bf0b2215f1e796c8db1af731dcc7f",
      "function": "createAd(address,bytes32,uint256,uint256,uint8)",
      "arguments": [
        "0xf11176495d7370DB4d634eb1827dadDB919F62aA",
        "0x0000000000000000000000000000000000000000000000000000000000000001",
        "1000000",
        "2592000",
        "1"
      ],
      "transaction": {
        "from": "0x7cbf8192c023c46ed0cb78857bad7abcea18956f",
        "to": "0x194db537469bf0b2215f1e796c8db1af731dcc7f",
        "gas": "0x619e8",
        "value": "0x0",
        "input": "0x9b13be9c000000000000000000000000f11176495d7370db4d634eb1827daddb919f62aa000000000000000000000000000000000000000000000000000000000000000100000000000000000000000000000000000000000000000000000000000f42400000000000000000000000000000000000000000000000000000000000278d000000000000000000000000000000000000000000000000000000000000000001",
        "nonce": "0x2",
        "chainId": "0x14a34"
      },
      "additionalContracts": [],
      "isFixedGasLimit": false
    },
    {
      "hash": "0x54c98b6de4ab59c9ce13ad7856044cb349842d71bd2cbe647b18f96e6453ac60",
      "transactionType": "CALL",
      "contractName": null,
      "contractAddress": "0x194db537469bf0b2215f1e796c8db1af731dcc7f",
      "function": "createAd(address,bytes32,uint256,uint256,uint8)",
      "arguments": [
        "0xf11176495d7370DB4d634eb1827dadDB919F62aA",
        "0x0000000000000000000000000000000000000000000000000000000000000002",
        "1000000",
        "2592000",
        "1"
      ],
      "transaction": {
        "from": "0x7cbf8192c023c46ed0cb78857bad7abcea18956f",
        "to": "0x194db537469bf0b2215f1e796c8db1af731dcc7f",
        "gas": "0x55687",
        "value": "0x0",
        "input": "0x9b13be9c000000000000000000000000f11176495d7370db4d634eb1827daddb919f62aa000000000000000000000000000000000000000000000000000000000000000200000000000000000000000000000000000000000000000000000000000f42400000000000000000000000000000000000000000000000000000000000278d000000000000000000000000000000000000000000000000000000000000000001",
        "nonce": "0x3",
        "chainId": "0x14a34"
      },
      "additionalContracts": [],
      "isFixedGasLimit": false
    },
    {
      "hash": "0x886182dafb4bfa4a171266788617389eaec022c76485c9ea89c92339784f124f",
      "transactionType": "CALL",
      "contractName": null,
      "contractAddress": "0x194db537469bf0b2215f1e796c8db1af731dcc7f",
      "function": "createAd(address,bytes32,uint256,uint256,uint8)",
      "arguments": [
        "0xf11176495d7370DB4d634eb1827dadDB919F62aA",
        "0x0000000000000000000000000000000000000000000000000000000000000003",
        "10000",
        "2592000",
        "0"
      ],
      "transaction": {
        "from": "0x7cbf8192c023c46ed0cb78857bad7abcea18956f",
        "to": "0x194db537469bf0b2215f1e796c8db1af731dcc7f",
        "gas": "0x4e4a4",
        "value": "0x0",
        "input": "0x9b13be9c000000000000000000000000f11176495d7370db4d634eb1827daddb919f62aa000000000000000000000000000000000000000000000000000000000000000300000000000000000000000000000000000000000000000000000000000027100000000000000000000000000000000000000000000000000000000000278d000000000000000000000000000000000000000000000000000000000000000000",
        "nonce": "0x4",
        "chainId": "0x14a34"
      },
      "additionalContracts": [],
      "isFixedGasLimit": false
    },
    {
      "hash": "0x67854a8be23a304bb3a070bcafb2a4f99d54ce88a5d5b4e3d8dc9123b0f5f2a4",
      "transactionType": "CALL",
      "contractName": null,
      "contractAddress": "0x194db537469bf0b2215f1e796c8db1af731dcc7f",
      "function": "createAd(address,bytes32,uint256,uint256,uint8)",
      "arguments": [
        "0xf11176495d7370DB4d634eb1827dadDB919F62aA",
        "0x0000000000000000000000000000000000000000000000000000000000000004",
        "5000",
        "2592000",
        "0"
      ],
      "transaction": {
        "from": "0x7cbf8192c023c46ed0cb78857bad7abcea18956f",
        "to": "0x194db537469bf0b2215f1e796c8db1af731dcc7f",
        "gas": "0x4e4a4",
        "value": "0x0",
        "input": "0x9b13be9c000000000000000000000000f11176495d7370db4d634eb1827daddb919f62aa000000000000000000000000000000000000000000000000000000000000000400000000000000000000000000000000000000000000000000000000000013880000000000000000000000000000000000000000000000000000000000278d000000000000000000000000000000000000000000000000000000000000000000",
        "nonce": "0x5",
        "chainId": "0x14a34"
      },
      "additionalContracts": [],
      "isFixedGasLimit": false
    }
  ],
  "receipts": [
    {
      "status": "0x1",
      "cumulativeGasUsed": "0xcc798",
      "logs": [
        {
          "address": "0x194db537469bf0b2215f1e796c8db1af731dcc7f",
          "topics": [
            "0xb832a1385e3ff3ce382b215cb98c30f8ef9e372abc94aa5a8e2c7d55e8dfb0cd",
            "0x0000000000000000000000000000000000000000000000000000000000000001",
            "0x000000000000000000000000f11176495d7370db4d634eb1827daddb919f62aa"
          ],
          "data": "0x",
          "blockHash": "0xfb4347d862ee0a18cb12cf0eb603bd6e49e62abb7419b054e53511dc4b5fc3b2",
          "blockNumber": "0xb760aa",
          "transactionHash": "0x6d5afa0884452b0480aa09ad1720f2c3512905769344582b6641e9ddba5f616b",
          "transactionIndex": "0xa",
          "logIndex": "0x7",
          "removed": false
        }
      ],
      "logsBloom": "0x00000000000000000000000000000000000000000000000001000002000000000000000000000000000000000000000000000000000000000000000000140000010000000000000000000000000000000000000000040000000000000000000020000000000000000000004000000000000000000000000000000000000000000000000000000000000000000000000000000000000000000000004800400000000000000000000000000000000000000000000000000000000000000000000000000000000000000000000000000000000000000000000000000000000040000000000000000000000000000000000000000000000000000000000000000000",
      "type": "0x2",
      "transactionHash": "0x6d5afa0884452b0480aa09ad1720f2c3512905769344582b6641e9ddba5f616b",
      "transactionIndex": "0xa",
      "blockHash": "0xfb4347d862ee0a18cb12cf0eb603bd6e49e62abb7419b054e53511dc4b5fc3b2",
      "blockNumber": "0xb760aa",
      "gasUsed": "0x42bf9",
      "effectiveGasPrice": "0xf78725",
      "from": "0x7cbf8192c023c46ed0cb78857bad7abcea18956f",
      "to": "0x194db537469bf0b2215f1e796c8db1af731dcc7f",
      "contractAddress": null,
      "l1BaseFeeScalar": "0x44d",
      "l1BlobBaseFee": "0xbd1745",
      "l1BlobBaseFeeScalar": "0xa118b",
      "l1Fee": "0x5a49f7ca9",
      "l1GasPrice": "0x2d02c6e11",
      "l1GasUsed": "0x6da"
    },
    {
      "status": "0x1",
      "cumulativeGasUsed": "0xd0037",
      "logs": [
        {
          "address": "0x194db537469bf0b2215f1e796c8db1af731dcc7f",
          "topics": [
            "0xb832a1385e3ff3ce382b215cb98c30f8ef9e372abc94aa5a8e2c7d55e8dfb0cd",
            "0x0000000000000000000000000000000000000000000000000000000000000002",
            "0x000000000000000000000000f11176495d7370db4d634eb1827daddb919f62aa"
          ],
          "data": "0x",
          "blockHash": "0x0d1c92ea1e3d2a355acb5dd55a9bba1027a01e5d67132a36c0a0cedf40d478a8",
          "blockNumber": "0xb760ab",
          "transactionHash": "0x54c98b6de4ab59c9ce13ad7856044cb349842d71bd2cbe647b18f96e6453ac60",
          "transactionIndex": "0x5",
          "logIndex": "0x3",
          "removed": false
        }
      ],
      "logsBloom": "0x04000000000000000000000000000000000000000000000001000002000000000000000000000000000000000000000000000000000000000000000000100000010000000000000000000000000000000000000000000000000000000000000020000000000000000000004000000000000000000000000000000000000000000000000000000000000000000000000000000000000000000000004800400000000000000000000000000100000000000000000000000000000000000000000000000000000000000000000000000000000000000000000000000000000000000000000000000000000000000000000000000000008000000000000000000000",
      "type": "0x2",
      "transactionHash": "0x54c98b6de4ab59c9ce13ad7856044cb349842d71bd2cbe647b18f96e6453ac60",
      "transactionIndex": "0x5",
      "blockHash": "0x0d1c92ea1e3d2a355acb5dd55a9bba1027a01e5d67132a36c0a0cedf40d478a8",
      "blockNumber": "0xb760ab",
      "gasUsed": "0x3a661",
      "effectiveGasPrice": "0xf6c611",
      "from": "0x7cbf8192c023c46ed0cb78857bad7abcea18956f",
      "to": "0x194db537469bf0b2215f1e796c8db1af731dcc7f",
      "contractAddress": null,
      "l1BaseFeeScalar": "0x44d",
      "l1BlobBaseFee": "0xb5cf94",
      "l1BlobBaseFeeScalar": "0xa118b",
      "l1Fee": "0x5bb24c0ba",
      "l1GasPrice": "0x2dce5a3ac",
      "l1GasUsed": "0x6da"
    },
    {
      "status": "0x1",
      "cumulativeGasUsed": "0x1058b9",
      "logs": [
        {
          "address": "0x194db537469bf0b2215f1e796c8db1af731dcc7f",
          "topics": [
            "0xb832a1385e3ff3ce382b215cb98c30f8ef9e372abc94aa5a8e2c7d55e8dfb0cd",
            "0x0000000000000000000000000000000000000000000000000000000000000003",
            "0x000000000000000000000000f11176495d7370db4d634eb1827daddb919f62aa"
          ],
          "data": "0x",
          "blockHash": "0x0d1c92ea1e3d2a355acb5dd55a9bba1027a01e5d67132a36c0a0cedf40d478a8",
          "blockNumber": "0xb760ab",
          "transactionHash": "0x886182dafb4bfa4a171266788617389eaec022c76485c9ea89c92339784f124f",
          "transactionIndex": "0x6",
          "logIndex": "0x4",
          "removed": false
        }
      ],
      "logsBloom": "0x00000000000000000000000000000000000000000000000001000002000000000000000000000000000000000000000000000000020000000000000000100000010000000000000000000000000000000000000000000000000000000000000020000000000000000000004000000000000000000000000000000000000000000000000000000000000000000000000000000000000000000000004800400000000000000000000000000000000000000000000000800000000000000000400000000000000000000000000000000000000000000000000000000000000000000000000000000000000000000000000000000000000000000000000000000000",
      "type": "0x2",
      "transactionHash": "0x886182dafb4bfa4a171266788617389eaec022c76485c9ea89c92339784f124f",
      "transactionIndex": "0x6",
      "blockHash": "0x0d1c92ea1e3d2a355acb5dd55a9bba1027a01e5d67132a36c0a0cedf40d478a8",
      "blockNumber": "0xb760ab",
      "gasUsed": "0x35882",
      "effectiveGasPrice": "0xf6c611",
      "from": "0x7cbf8192c023c46ed0cb78857bad7abcea18956f",
      "to": "0x194db537469bf0b2215f1e796c8db1af731dcc7f",
      "contractAddress": null,
      "l1BaseFeeScalar": "0x44d",
      "l1BlobBaseFee": "0xb5cf94",
      "l1BlobBaseFeeScalar": "0xa118b",
      "l1Fee": "0x5a4c28ad8",
      "l1GasPrice": "0x2dce5a3ac",
      "l1GasUsed": "0x6bf"
    },
    {
      "status": "0x1",
      "cumulativeGasUsed": "0x13b13b",
      "logs": [
        {
          "address": "0x194db537469bf0b2215f1e796c8db1af731dcc7f",
          "topics": [
            "0xb832a1385e3ff3ce382b215cb98c30f8ef9e372abc94aa5a8e2c7d55e8dfb0cd",
            "0x0000000000000000000000000000000000000000000000000000000000000004",
            "0x000000000000000000000000f11176495d7370db4d634eb1827daddb919f62aa"
          ],
          "data": "0x",
          "blockHash": "0x0d1c92ea1e3d2a355acb5dd55a9bba1027a01e5d67132a36c0a0cedf40d478a8",
          "blockNumber": "0xb760ab",
          "transactionHash": "0x67854a8be23a304bb3a070bcafb2a4f99d54ce88a5d5b4e3d8dc9123b0f5f2a4",
          "transactionIndex": "0x7",
          "logIndex": "0x5",
          "removed": false
        }
      ],
      "logsBloom": "0x00000000000000000000000000000000000000000000000001000002000000000000000000000000000000000000000000000000000000000000000000100000010000000000000000000000000000000000000000000000000000000000000028000000000000000000004000000000000000000000000000000000000000000000000000000000000000000000000000000000000000000000004800400000000000000000000000000000000000000000000000000000002000000000000000000000000000000000000000000000000000008000000000000000000000000000000000000000000000000000000000000000000000000000000000000000",
      "type": "0x2",
      "transactionHash": "0x67854a8be23a304bb3a070bcafb2a4f99d54ce88a5d5b4e3d8dc9123b0f5f2a4",
      "transactionIndex": "0x7",
      "blockHash": "0x0d1c92ea1e3d2a355acb5dd55a9bba1027a01e5d67132a36c0a0cedf40d478a8",
      "blockNumber": "0xb760ab",
      "gasUsed": "0x35882",
      "effectiveGasPrice": "0xf6c611",
      "from": "0x7cbf8192c023c46ed0cb78857bad7abcea18956f",
      "to": "0x194db537469bf0b2215f1e796c8db1af731dcc7f",
      "contractAddress": null,
      "l1BaseFeeScalar": "0x44d",
      "l1BlobBaseFee": "0xb5cf94",
      "l1BlobBaseFeeScalar": "0xa118b",
      "l1Fee": "0x5a4c28ad8",
      "l1GasPrice": "0x2dce5a3ac",
      "l1GasUsed": "0x6bf"
    }
  ],
  "libraries": [],
  "pending": [],
  "returns": {},
  "timestamp": 1719803963,
  "chain": 84532,
  "commit": "411d104"
}