{
  "transactions": [
    {
      "hash": "0x180e94bc1ea8bf59cf680666df2a8335c07cc11fd2c5a8d6d166e8d59f03f3cb",
      "transactionType": "CALL",
      "contractName": null,
      "contractAddress": "0x194db537469bf0b2215f1e796c8db1af731dcc7f",
      "function": "createAd(address,bytes32,uint256,uint256,uint8)",
      "arguments": [
        "0xf11176495d7370DB4d634eb1827dadDB919F62aA",
        "0x0000000000000000000000000000000000000000000000000000000000000001",
        "1000000",
        "2592000",
        "1"
      ],
      "transaction": {
        "from": "0x7cbf8192c023c46ed0cb78857bad7abcea18956f",
        "to": "0x194db537469bf0b2215f1e796c8db1af731dcc7f",
        "gas": "0x55687",
        "value": "0x0",
        "input": "0x9b13be9c000000000000000000000000f11176495d7370db4d634eb1827daddb919f62aa000000000000000000000000000000000000000000000000000000000000000100000000000000000000000000000000000000000000000000000000000f42400000000000000000000000000000000000000000000000000000000000278d000000000000000000000000000000000000000000000000000000000000000001",
        "nonce": "0x7",
        "chainId": "0x14a34"
      },
      "additionalContracts": [],
      "isFixedGasLimit": false
    },
    {
      "hash": "0xa9f2fa2c1d2b275dfb0016fd6ae5652786b4e21ba14bdcb91f4e579fe4f5dba2",
      "transactionType": "CALL",
      "contractName": null,
      "contractAddress": "0x194db537469bf0b2215f1e796c8db1af731dcc7f",
      "function": "createAd(address,bytes32,uint256,uint256,uint8)",
      "arguments": [
        "0xf11176495d7370DB4d634eb1827dadDB919F62aA",
        "0x0000000000000000000000000000000000000000000000000000000000000002",
        "1000000",
        "2592000",
        "1"
      ],
      "transaction": {
        "from": "0x7cbf8192c023c46ed0cb78857bad7abcea18956f",
        "to": "0x194db537469bf0b2215f1e796c8db1af731dcc7f",
        "gas": "0x55687",
        "value": "0x0",
        "input": "0x9b13be9c000000000000000000000000f11176495d7370db4d634eb1827daddb919f62aa000000000000000000000000000000000000000000000000000000000000000200000000000000000000000000000000000000000000000000000000000f42400000000000000000000000000000000000000000000000000000000000278d000000000000000000000000000000000000000000000000000000000000000001",
        "nonce": "0x8",
        "chainId": "0x14a34"
      },
      "additionalContracts": [],
      "isFixedGasLimit": false
    },
    {
      "hash": "0x9c4470990f9495dee159d4bda8b39e8bb66c90583ffb0ba25cc1419626a45da9",
      "transactionType": "CALL",
      "contractName": null,
      "contractAddress": "0x194db537469bf0b2215f1e796c8db1af731dcc7f",
      "function": "createAd(address,bytes32,uint256,uint256,uint8)",
      "arguments": [
        "0xf11176495d7370DB4d634eb1827dadDB919F62aA",
        "0x0000000000000000000000000000000000000000000000000000000000000003",
        "10000",
        "2592000",
        "0"
      ],
      "transaction": {
        "from": "0x7cbf8192c023c46ed0cb78857bad7abcea18956f",
        "to": "0x194db537469bf0b2215f1e796c8db1af731dcc7f",
        "gas": "0x4e4a4",
        "value": "0x0",
        "input": "0x9b13be9c000000000000000000000000f11176495d7370db4d634eb1827daddb919f62aa000000000000000000000000000000000000000000000000000000000000000300000000000000000000000000000000000000000000000000000000000027100000000000000000000000000000000000000000000000000000000000278d000000000000000000000000000000000000000000000000000000000000000000",
        "nonce": "0x9",
        "chainId": "0x14a34"
      },
      "additionalContracts": [],
      "isFixedGasLimit": false
    },
    {
      "hash": "0xe2582cd691ca093abdea138a471533d0a5ad55bf80def236cf7f4a09d5d96d81",
      "transactionType": "CALL",
      "contractName": null,
      "contractAddress": "0x194db537469bf0b2215f1e796c8db1af731dcc7f",
      "function": "createAd(address,bytes32,uint256,uint256,uint8)",
      "arguments": [
        "0xf11176495d7370DB4d634eb1827dadDB919F62aA",
        "0x0000000000000000000000000000000000000000000000000000000000000004",
        "5000",
        "2592000",
        "0"
      ],
      "transaction": {
        "from": "0x7cbf8192c023c46ed0cb78857bad7abcea18956f",
        "to": "0x194db537469bf0b2215f1e796c8db1af731dcc7f",
        "gas": "0x4e4a4",
        "value": "0x0",
        "input": "0x9b13be9c000000000000000000000000f11176495d7370db4d634eb1827daddb919f62aa000000000000000000000000000000000000000000000000000000000000000400000000000000000000000000000000000000000000000000000000000013880000000000000000000000000000000000000000000000000000000000278d000000000000000000000000000000000000000000000000000000000000000000",
        "nonce": "0xa",
        "chainId": "0x14a34"
      },
      "additionalContracts": [],
      "isFixedGasLimit": false
    }
  ],
  "receipts": [
    {
      "status": "0x1",
      "cumulativeGasUsed": "0x72e8d6",
      "logs": [
        {
          "address": "0x194db537469bf0b2215f1e796c8db1af731dcc7f",
          "topics": [
            "0xb832a1385e3ff3ce382b215cb98c30f8ef9e372abc94aa5a8e2c7d55e8dfb0cd",
            "0x0000000000000000000000000000000000000000000000000000000000000005",
            "0x000000000000000000000000f11176495d7370db4d634eb1827daddb919f62aa"
          ],
          "data": "0x",
          "blockHash": "0xcd55e868ac0633a59040a8f1a5195dfb05054a1e598e15f025c87152ac8ada9d",
          "blockNumber": "0xb775af",
          "transactionHash": "0x180e94bc1ea8bf59cf680666df2a8335c07cc11fd2c5a8d6d166e8d59f03f3cb",
          "transactionIndex": "0xc",
          "logIndex": "0x89",
          "removed": false
        }
      ],
      "logsBloom": "0x00000000000000000000000000000000000000000000000001000002000000000000000000000000000000000000000000000000000000000000000000100000010010000000000000000000000000000000000000000000000000000000000020000000000000000000004000000000000000000000000000000000000000000000000000000000000000000000001000000800000000000000004800400000000000000000000000000000000000000000000000000000000000000000000000000000000000000000000000000000000000000000000000000000000000000000000000000000000000000000000000000000000000000000000000000000",
      "type": "0x2",
      "transactionHash": "0x180e94bc1ea8bf59cf680666df2a8335c07cc11fd2c5a8d6d166e8d59f03f3cb",
      "transactionIndex": "0xc",
      "blockHash": "0xcd55e868ac0633a59040a8f1a5195dfb05054a1e598e15f025c87152ac8ada9d",
      "blockNumber": "0xb775af",
      "gasUsed": "0x3a661",
      "effectiveGasPrice": "0x13a02e",
      "from": "0x7cbf8192c023c46ed0cb78857bad7abcea18956f",
      "to": "0x194db537469bf0b2215f1e796c8db1af731dcc7f",
      "contractAddress": null,
      "l1BaseFeeScalar": "0x44d",
      "l1BlobBaseFee": "0xdb2e5553",
      "l1BlobBaseFeeScalar": "0xa118b",
      "l1Fee": "0x51b912bb7b",
      "l1GasPrice": "0xa8f8a145b",
      "l1GasUsed": "0x6cd"
    },
    {
      "status": "0x1",
      "cumulativeGasUsed": "0x768f37",
      "logs": [
        {
          "address": "0x194db537469bf0b2215f1e796c8db1af731dcc7f",
          "topics": [
            "0xb832a1385e3ff3ce382b215cb98c30f8ef9e372abc94aa5a8e2c7d55e8dfb0cd",
            "0x0000000000000000000000000000000000000000000000000000000000000006",
            "0x000000000000000000000000f11176495d7370db4d634eb1827daddb919f62aa"
          ],
          "data": "0x",
          "blockHash": "0xcd55e868ac0633a59040a8f1a5195dfb05054a1e598e15f025c87152ac8ada9d",
          "blockNumber": "0xb775af",
          "transactionHash": "0xa9f2fa2c1d2b275dfb0016fd6ae5652786b4e21ba14bdcb91f4e579fe4f5dba2",
          "transactionIndex": "0xd",
          "logIndex": "0x8a",
          "removed": false
        }
      ],
      "logsBloom": "0x00000000000000000000000000000000000000000000000001000002000000000000000000000000000000000000000000000000000400000000000000100000010000000000000000000000000000000000000000000000000000000000000020000000000000000000004000000000000000000000000000000000000000000000000400000000000000000000000000000000000000000000004800400000000000000000000000000000000000000000000000000000000000080000000000000000000000000000000000000000000000000000000000000000000000000000000000000000000000000000000000000000000000000000000000000000",
      "type": "0x2",
      "transactionHash": "0xa9f2fa2c1d2b275dfb0016fd6ae5652786b4e21ba14bdcb91f4e579fe4f5dba2",
      "transactionIndex": "0xd",
      "blockHash": "0xcd55e868ac0633a59040a8f1a5195dfb05054a1e598e15f025c87152ac8ada9d",
      "blockNumber": "0xb775af",
      "gasUsed": "0x3a661",
      "effectiveGasPrice": "0x13a02e",
      "from": "0x7cbf8192c023c46ed0cb78857bad7abcea18956f",
      "to": "0x194db537469bf0b2215f1e796c8db1af731dcc7f",
      "contractAddress": null,
      "l1BaseFeeScalar": "0x44d",
      "l1BlobBaseFee": "0xdb2e5553",
      "l1BlobBaseFeeScalar": "0xa118b",
      "l1Fee": "0x5118410bd7",
      "l1GasPrice": "0xa8f8a145b",
      "l1GasUsed": "0x6bf"
    },
    {
      "status": "0x1",
      "cumulativeGasUsed": "0x79e7b9",
      "logs": [
        {
          "address": "0x194db537469bf0b2215f1e796c8db1af731dcc7f",
          "topics": [
            "0xb832a1385e3ff3ce382b215cb98c30f8ef9e372abc94aa5a8e2c7d55e8dfb0cd",
            "0x0000000000000000000000000000000000000000000000000000000000000007",
            "0x000000000000000000000000f11176495d7370db4d634eb1827daddb919f62aa"
          ],
          "data": "0x",
          "blockHash": "0xcd55e868ac0633a59040a8f1a5195dfb05054a1e598e15f025c87152ac8ada9d",
          "blockNumber": "0xb775af",
          "transactionHash": "0x9c4470990f9495dee159d4bda8b39e8bb66c90583ffb0ba25cc1419626a45da9",
          "transactionIndex": "0xe",
          "logIndex": "0x8b",
          "removed": false
        }
      ],
      "logsBloom": "0x00000000000000000000000000000000000000000000000001000002000000000000000000000000000000000000000000001000000000000000000000100000010020000000000000000000000000000000000000000000000000000000000020000000000000000000004000000000000000000000000000000000000000000000000000000000000000000000000000000000000000000000004800400000000000000000000000000000000000000000000000000000000000000000000000000000000000000000000000000000000000000000000000000100000000000000000000000000000000000000000000000000000000000000000000000000",
      "type": "0x2",
      "transactionHash": "0x9c4470990f9495dee159d4bda8b39e8bb66c90583ffb0ba25cc1419626a45da9",
      "transactionIndex": "0xe",
      "blockHash": "0xcd55e868ac0633a59040a8f1a5195dfb05054a1e598e15f025c87152ac8ada9d",
      "blockNumber": "0xb775af",
      "gasUsed": "0x35882",
      "effectiveGasPrice": "0x13a02e",
      "from": "0x7cbf8192c023c46ed0cb78857bad7abcea18956f",
      "to": "0x194db537469bf0b2215f1e796c8db1af731dcc7f",
      "contractAddress": null,
      "l1BaseFeeScalar": "0x44d",
      "l1BlobBaseFee": "0xdb2e5553",
      "l1BlobBaseFeeScalar": "0xa118b",
      "l1Fee": "0x50776f5c33",
      "l1GasPrice": "0xa8f8a145b",
      "l1GasUsed": "0x6b2"
    },
    {
      "status": "0x1",
      "cumulativeGasUsed": "0x7d403b",
      "logs": [
        {
          "address": "0x194db537469bf0b2215f1e796c8db1af731dcc7f",
          "topics": [
            "0xb832a1385e3ff3ce382b215cb98c30f8ef9e372abc94aa5a8e2c7d55e8dfb0cd",
            "0x0000000000000000000000000000000000000000000000000000000000000008",
            "0x000000000000000000000000f11176495d7370db4d634eb1827daddb919f62aa"
          ],
          "data": "0x",
          "blockHash": "0xcd55e868ac0633a59040a8f1a5195dfb05054a1e598e15f025c87152ac8ada9d",
          "blockNumber": "0xb775af",
          "transactionHash": "0xe2582cd691ca093abdea138a471533d0a5ad55bf80def236cf7f4a09d5d96d81",
          "transactionIndex": "0xf",
          "logIndex": "0x8c",
          "removed": false
        }
      ],
      "logsBloom": "0x00000000000000000000000000000000000000000000000001000002000000000000000000000000000000000000000000000000000080000000000000100000010000000000000000000000000000000000000000000000000000000000000020000000000000000000004000000000000000000000000000000000000000000080000000000000000000000000000000000000000000000000004800400000000000000000000000000000000000000000000000000000000000000000000040000000000000000000000000000000000000000000000000000000000000000000000000000000000000000000000000000000000000000000000000000000",
      "type": "0x2",
      "transactionHash": "0xe2582cd691ca093abdea138a471533d0a5ad55bf80def236cf7f4a09d5d96d81",
      "transactionIndex": "0xf",
      "blockHash": "0xcd55e868ac0633a59040a8f1a5195dfb05054a1e598e15f025c87152ac8ada9d",
      "blockNumber": "0xb775af",
      "gasUsed": "0x35882",
      "effectiveGasPrice": "0x13a02e",
      "from": "0x7cbf8192c023c46ed0cb78857bad7abcea18956f",
      "to": "0x194db537469bf0b2215f1e796c8db1af731dcc7f",
      "contractAddress": null,
      "l1BaseFeeScalar": "0x44d",
      "l1BlobBaseFee": "0xdb2e5553",
      "l1BlobBaseFeeScalar": "0xa118b",
      "l1Fee": "0x50776f5c33",
      "l1GasPrice": "0xa8f8a145b",
      "l1GasUsed": "0x6b2"
    }
  ],
  "libraries": [],
  "pending": [],
  "returns": {},
  "timestamp": 1719814723,
  "chain": 84532,
  "commit": "6563e59"
}